:020000040800F2
:10000000607200206102000893220008CF1F0008E0
:1000100091220008710800088928000800000000EB
:10002000000000000000000000000000A101000826
:100030000909000800000000FD010008292300084C
:100040007B0200087B0200087B0200087B0200089C
:100050007B0200087B0200087B0200087B0200088C
:100060007B0200087B0200087B0200087B0200087C
:100070007B0200087B0200087B0200087B0200086C
:1000800075080008810800087B0200087B02000850
:100090007B0200087B0200087B0200087B0200084C
:1000A0007B0200087B0200087B0200087B0200083C
:1000B0007B0200087B0200087B0200087B0200082C
:1000C0007B0200087B0200087B0200087B0200081C
:1000D0007B020008E5270008112800084D280008C9
:1000E0007B0200087B0200087B0200087B020008FC
:1000F0007B0200087B0200087B0200087B020008EC
:100100007B0200087B0200087B0200087B020008DB
:100110007B0200087B020008E92300087B0200083C
:100120007B0200087B0200087B0200087B020008BB
:100130007B0200087B0200087B0200087B020008AB
:100140007B0200087B0200087B0200087B0200089B
:100150007B0200087B0200087B0200087B0200088B
:100160007B0200087B0200087B0200087B0200087B
:100170007B0200087B0200087B02000800000000F0
:100180007B0200087B020008DFF810D000F0C4FA00
:1001900000480047053F0008AFF300806072002070
:1001A0002C4B19680868B0E8F04F80F30988BFF35A
:1001B0006F8F4FF0000080F311887047000000003F
:1001C00008480068006880F308884FF0000080F35A
:1001D000148862B661B6BFF34F8FBFF36F8F00DF35
:1001E00000BF00BF08ED00E0DFF80C00016841F43B
:1001F00070010160704700BF88ED00E0EFF30980F7
:10020000BFF36F8F134B1A681EF0100F08BF20ED5D
:10021000108A20E9F04F106009B44FF0500080F3CD
:100220001188BFF34F8FBFF36F8F04F035FF4FF08E
:10023000000080F3118809BC19680868B0E8F04F25
:100240001EF0100F08BFB0EC108A80F30988BFF3CE
:100250006F8F70471C000020EFF30580704700008F
:100260000648804706480047FEE7FEE7FEE7FEE750
:10027000FEE7FEE7FEE7FEE7FEE7FEE7D92300081C
:10028000890100082DE9F05F0546002092469B4653
:1002900088460646814640241BE02846414647469C
:1002A000224600F070F853465A46C01A914110D3C6
:1002B00011461846224600F057F82D1A67EB010840
:1002C0004F4622460120002100F04EF817EB0009AE
:1002D0004E41201EA4F10104DFDC484631462A4687
:1002E0004346BDE8F09F40EA01039B0703D009E0C5
:1002F00008C9121F08C0042AFAD203E011F8013B12
:1003000000F8013B521EF9D27047D2B201E000F86A
:10031000012B491EFBD270470022F6E710B51346A9
:100320000A4604461946FFF7F0FF204610BD421C5E
:1003300010F8011B0029FBD1801A704730B50B461D
:10034000014600202022012409E021FA02F59D4205
:1003500005D303FA02F5491B04FA02F52844151ED9
:10036000A2F10102F1DC30BD202A04DB203A00FAC0
:1003700002F1002070479140C2F1200320FA03F3FC
:10038000194390407047202A04DB203A21FA02F0FA
:100390000021704721FA02F3D040C2F120029140BF
:1003A0000843194670472DE9FE4F804681EA030055
:1003B000C00F0C46009021F0004123F00045B8EB3F
:1003C0000200A94105D24046214690461C460B46F4
:1003D000024623F00040104347D0270DC7F30A0020
:1003E000C3F30A510290401A019040286BDAC3F31C
:1003F000130040F4801B0098924620B10023D2EBFA
:10040000030A63EB0B0B01985946C0F140025046BA
:10041000FFF7AAFF06460D4650465946019A00F0DE
:100420008DF910EB08006141002487EA115284EA3B
:10043000E7731A4340D0009A62B3019A012A4FEA47
:10044000075215DC001B61EB02014FF0004202EA8B
:100450000752CDE90042001C41F5801132462B467F
:1004600000F08DF903B0BDE8F08F40462146F9E772
:10047000001B61EB0201001C41F5801300185B4179
:100480002018A2F5001747EB030140EAD570B61912
:100490006D4111E06D084FEA360645EAC0754FEA36
:1004A0000752001B61EB0201001C41F58011490855
:1004B0004FEA30000019514132462B4603B0BDE8E7
:1004C000F04F00F04DB90098012240000023D0EB1E
:1004D000020263EBE073009821464FEAE074B8EB48
:1004E000000061EB0401E9E783F000435BE781F082
:1004F000004158E72DE9FE4F81EA030404F000446F
:1005000021F0004100944FF0000B23F0004350EA2B
:1005100001045ED052EA03045BD0C3F30A54C1F372
:100520000A552C44A4F2F3340194A0FB0254C1F305
:10053000130141F48011C3F3130343F4801301FB4F
:10054000024400FB034E840A970A44EA815447EAB6
:100550008357A4FB076802958D0A05FB07854FEAC0
:10056000932C04FB0C542705029D4FEA065847EADA
:100570001637B5EB08056EEB070C870E920E47EAAF
:10058000811742EA8312A7FB0201B6EB0B0164EB71
:1005900000042B0D43EA0C335E1844EB1C50DA4682
:1005A0005146E7FB0201C5F313044FEA0B3343EA5C
:1005B00014534FEA0432019C43EA0603A4F10C04ED
:1005C0000294009CCDE900B400F0D9F803B0BDE876
:1005D000F08F00200146F9E72DE9F04D81EA030490
:1005E00004F0004B21F0004514464FF0000A23F0C0
:1005F000004150EA050220D054EA01021DD0C5F3A3
:100600000A570246C5F31303C1F31300C1F30A5698
:1006100040F4801543F48013A7EB0608101BD64660
:1006200008F2FD3873EB050002D308F1010801E080
:1006300092185B41B8F1000F03DA00200146BDE8D3
:10064000F08D00204FF48011064684460EE0171B03
:1006500073EB050705D3121B63EB050306434CEA56
:10066000010C49084FEA300092185B4150EA01073B
:10067000EDD152EA030012D082EA040083EA0501B8
:10068000084305D0101BAB4106D20122002306E02F
:1006900000224FF0004302E06FF0010253101AEB0A
:1006A00006004CEB085110EB0A0041EB0B01BDE8D2
:1006B000F04D00F055B8C1F30A52C1F3130140F2F6
:1006C000FF3341F480119A4202DA0020014670475C
:1006D00040F233439A42A2F2334202DC5242FFF725
:1006E00052BEFFF741BE000030B5041E71F1000498
:1006F00004DB4FF00044404264EB0101141E73F12F
:10070000000405DB1C464FF00043524263EB040338
:10071000994208BF904230BD064C074D06E0E068A4
:1007200040F0010394E8070098471034AC42F6D338
:10073000FFF72EFD94640008B4640008202A06DB4D
:10074000CB17203A41FA02F043EAE07306E041FA9F
:1007500002F3D040C2F1200291400843194670478D
:1007600010B5141E73F1000408DA401C41F10001B9
:1007700092185B411A4301D120F0010010BD2DE910
:10078000F04D92469B4611B1B1FA81F202E0B0FA07
:1007900080F220329046FFF7E7FD04460F4640EA1C
:1007A0000A0041EA0B0153465A46084313D011464A
:1007B00053EA010019D0C8F140025046FFF7E3FDAB
:1007C00005460E46504659464246FFF7CDFD0843C2
:1007D00005D0012004E020463946BDE8F08D002018
:1007E000054346EAE0762C4337430A986305E40A5A
:1007F000A0EB08000022FD0A44EA47540A3002D563
:1008000000200146E9E7010510196941DDE90845C5
:1008100000196941BDE8F04DA2E770B58C1810F8D9
:10082000015B15F0070301D110F8013B2A1106D135
:1008300010F8012B03E010F8016B01F8016B5B1E4F
:10084000F9D12B0705D40023521E0DD401F8013B2A
:10085000FAE710F8013BCB1A921C03E013F8015B96
:1008600001F8015B521EF9D5A142D8D3002070BD1A
:10087000FEE70000014800F0D1B80000C8040020E5
:10088000014800F0CBB800002805002001681823BB
:10089000CAB2103AB2FBF3F2054B6FF30901032A17
:1008A0009B5CC36500D9091D81650846704700003F
:1008B0005C62000810B5014600208B698A6A4FF01F
:1008C000C07453B1B3F5005F15D072B1012A0CD0DA
:1008D000022A0AD0032A09D104E01AB1012A06D05B
:1008E000022A03D1C96AC90100D5012010BDC96A15
:1008F000A142FAD010BD002AF7D0012AF2D0022A74
:10090000F3D0032AF3D010BD704704F0D9B972B602
:10091000FEE704F0F5B930B513461CE0502484F32B
:100920001188BFF34F8FBFF36F8FC4888588AC42A7
:1009300015D0C5880468645DC5886D1CC580C588F0
:10094000B5F5847F01D90025C58001F8014B00244D
:1009500084F31188521E002AE0D1981A30BD00207D
:1009600080F31188F9E72DE9F0410446876D00F026
:1009700095FA064694F835000025022806D0802016
:10098000606584F834500120BDE8F081206801687A
:1009900021F0160101602068416921F08001416168
:1009A000206C08B9A06C20B12068016821F0080112
:1009B00001602068016821F0010101600CE000F095
:1009C0006DFA801B052807D920206065032084F874
:1009D000350084F83450D7E720680068C007EED1AE
:1009E00094F85C103F208840B860012084F83500FE
:1009F00084F834500020C7E790F83510022903D05E
:100A00008021416501207047052180F8351000687C
:100A1000016821F001010160002070472DE9F843D1
:100A200004464FF00009CDF8009063484FF416518A
:100A3000A56D0068B0FBF1F72E6894F85C100820F3
:100A400000FA01F131420FD021680A6852070BD534
:100A50000A6822F004020A6094F85C108840A860DA
:100A6000606D40F00100606594F85C104FF0010883
:100A700008FA01F0304208D021684969090604D516
:100A8000A860606D40F00200606594F85C1004207E
:100A90008840304208D021680968890704D5A860D9
:100AA000606D40F00400606594F85C101020884090
:100AB000304218D021680968090714D5A860206859
:100AC0000168490304D50068000308D5A16C07E05C
:100AD0000168C90503D4016821F008010160216C97
:100AE00009B12046884794F85C10202088403042A5
:100AF00031D021680968C9062DD5A86094F8350061
:100B000005282068016806D0490347D5006800031E
:100B10001DD4616C1CE021F0160101602068416960
:100B200021F080014161206C08B9A06C20B12068DF
:100B3000016821F00801016094F85C103F208840B2
:100B4000A86084F8358084F83490216D1FE0E16B53
:100B500009B120468847606D00282BD0606DC00722
:100B600014D0052084F835002068016821F00101C7
:100B700001600098401C0090B84203D820680068CB
:100B8000C007F6D184F8358084F83490E16C0029F0
:100B900010D001B02046BDE8F04308470168C90500
:100BA000D5D4016821F01001016084F8358084F803
:100BB0003490CCE7BDE8F883180000202DE9F0411F
:100BC000044600F06BF906465CB1022084F835005B
:100BD000002584F834502068016821F0010101608B
:100BE0000DE00120BDE8F08100F058F9801B0528D8
:100BF00005D920206065032084F83500F2E72068DD
:100C00000068C007F0D12268116820480140D4E98B
:100C100001031843D4E90336334318436369184387
:100C2000A3691843E3691843236A18430843616AB8
:100C3000042903D1D4E90B13194308431060206839
:100C40004069666A20F0070130460E4301270428F8
:100C50000CD1A06A0643E06A40B12046FFF72AFEA5
:100C600020B14020606584F83570BAE7206846619D
:100C70002046FFF70BFE94F85C203F2191408160F5
:100C8000656584F835700020ACE700003F8010F007
:100C90002DE9F84FDFF8BCA10022012503264FF013
:100CA0000F090AF1040BAAF1040E00BF0B6805FA44
:100CB00002F42340A34270D10F7907F00307012FFC
:100CC00001D0022F16D187684FEA420806FA08FCC5
:100CD00027EA0C07D1F80CC00CFA08FC4CEA070C08
:100CE000C0F808C04768A7430C79C4F300149440C7
:100CF0003C4344600C79E443A4070AD0C4684FEA3B
:100D0000420C06FA0CF7BC438F6807FA0CF727432E
:100D1000C7600C7904F00304022C12D1D40800EB54
:100D2000840CDCF820405707FF0E09FA07F824EA84
:100D30000804D1F8108008FA07F848EA0408CCF84B
:100D4000208004684FEA420C06FA0CF7BC430F7986
:100D500007F0030707FA0CF7274307604C6814F401
:100D6000403F70D03C4C276847F480472760246898
:100D700022F0030704F480440094384C07EB040C81
:100D8000DCF8084897074FEA177809FA08F7BC43D8
:100D9000334FB84202D1002724E054E0314FB8422B
:100DA00001D101271EE0304FB84201D1022719E0DE
:100DB0002E4FB84201D1032714E02D4FB84201D184
:100DC00004270FE02B4FB84201D105270AE02A4F34
:100DD000B84201D1062705E0284FB84201D10727C4
:100DE00000E0082707FA08F72743CCF80878DAF874
:100DF00000405746D1F804C09C435FEACC2C00D594
:100E00001C433C60DBF800405F46D1F804C09C43C3
:100E10005FEA8C2C00D51C433C60DEF8004077462E
:100E2000D1F804C09C435FEA8C3C00D51C433C6075
:100E3000084F083F3C68D1F804C09C435FEACC3CB3
:100E400000D51C433C60521C102AFFF42FAFBDE8B4
:100E5000F88F0000083C0140443802400030014057
:100E6000000002400004024000080240000C024062
:100E7000001002400014024000180240001C024012
:100E8000426921EA02030A4043EA02418161704754
:100E90000AB1816170470904FBE7000001488068DE
:100EA000704700000C00002002488168027811445D
:100EB000816070470C0000200B4810B5016841F4B8
:100EC00000710160016841F480610160016841F4D2
:100ED00080710160032000F09FF80F2000F006F8F9
:100EE00000F050F8002010BD003C024030B505462F
:100EF0001F4887B00024016841F0100101600068BC
:100F000006A900F01000009001A800F039F904983B
:100F1000A8B100F055F940001649174AB0FBF1F1AD
:100F20001648491E026040F2E732C0E90324C0E9D6
:100F30000114846100F0A2FB040003D015E000F06E
:100F40003FF9E9E70D4800F017FC04000DD1362009
:100F500000F034F8102D07D200222946362000F088
:100F60003BF80748056000E0012407B0204630BD8B
:100F70004038024040420F00001000408805002029
:100F8000100000200C4882B0016841F480410160EB
:100F9000006800F4804000900748001F016841F09D
:100FA000805101600068002200F0805000900F2105
:100FB000901E02B000F010B844380240002809DB4F
:100FC00000F01F02012191404009800000F1E02063
:100FD000C0F8001170470000F0B40E4B1B680C46BF
:100FE000C3F30223C3F10705042D00D90425191DFD
:100FF000072901D2002300E0DB1E012606FA05F1D5
:10100000491E214099409E40761E16403143F0BC57
:1010100001F04EBC0CED00E0064900F00702086844
:101020004FF6FF03184040EA0220034A10430860CD
:10103000704700000CED00E00000FA05704700006A
:101040002DE9F0470E46050065D0DFF81481D8F889
:101050000000F7B200F00700B04207D288F8007035
:10106000D8F8000000F00700B04254D128683D4C89
:10107000810712D5400703D5206840F4E050206076
:101080002878000703D5206840F46040206020687D
:10109000A96820F0F000084320602878C0072DD010
:1010A000304968680839012812D0022813D0032873
:1010B00011D00968890700292DDA216821F0030180
:1010C00001432160FFF7EAFE814641F2883A0EE0D3
:1010D00009688903EFE709688901ECE7FFF7DEFE9D
:1010E000A0EB0901514502D90320BDE8F087206833
:1010F000696800F00C00B0EB810FEFD1D8F8001058
:10110000404601F00701B14207D90770006800F0BE
:101110000700B04201D00120E7E72878400705D555
:101120002068E96820F4E050084320602878000730
:1011300006D52068296920F4604040EAC10020609B
:1011400000F05EF82168084AC1F30311515CC84001
:101150000649086006480068FFF7C8FE0020C4E79B
:10116000003C024008380240646200081800002079
:101170001000002001490120C86470470000474268
:101180000F2202600C4A136803F0030343601368E4
:1011900003F0F0038360136803F4E053C360126844
:1011A0004FF4E05303EAD20202610448006800F001
:1011B000070008607047000008380240003C024009
:1011C0000448054900680968044AC1F38221515C5A
:1011D000C8407047180000200838024074620008B8
:1011E0000448054900680968044AC1F34231515C6A
:1011F000C840704718000020083802407462000898
:10120000154810B5006810F00C02144813D04110B6
:10121000042A0FD0082A0ED10F4C241F22682368FD
:1012200002F03F025B0207D52068C0F38810A0FBE4
:10123000010106E0084610BD2168C1F38811A1FB39
:1012400000010023FFF71EF82168C1F30141491C8A
:101250004900B0FBF1F010BD083802400024F40052
:10126000054810B50068000605D5FFF7E7FE0249FE
:101270008020891C087010BD0C3802402DE9F84F01
:1012800004006ED02078DFF84C93C007A9F1040564
:101290004AD009F104000168C1F38101012908D095
:1012A0000068C0F3810002280AD1D9F8000040028A
:1012B00006D52868800337D560680028E1D033E080
:1012C0006068B0F5803F10D0B0F5A02F286810D02E
:1012D00020F480302860286820F48020286060682E
:1012E000A8B1FFF7DBFD06460DE0286840F480302A
:1012F000F4E740F480202860F7E700BFFFF7CEFD59
:10130000801B642873D828688003F7D50CE0FFF7AA
:10131000C5FD064605E000BFFFF7C0FD801B642841
:10132000F0D828688003F7D42078DFF8AC828007F3
:101330004FF0000A3ED5A748001D016811F00C0FC0
:1013400008D00068C0F3810002280BD1D9F8000052
:10135000400207D42868800716D5E068012800D12C
:1013600012E033E1E068B8B10120C8F80000FFF7EF
:1013700095FD064605E000BFFFF790FD801B0228A3
:10138000C0D828688007F7D52868216920F0F800C0
:1013900040EAC10028600DE0C8F800A0FFF77EFD1C
:1013A000064604E0FFF77AFD801B02281FD8286854
:1013B0008007F7D42078000722D5864F87486169D7
:1013C000703771B101210160FFF768FD064604E046
:1013D000FFF764FD801B022809D838688007F7D51D
:1013E0000EE0C0F800A0FFF759FD064605E082E0D8
:1013F000FFF754FD801B02287DD838688007F7D49A
:101400002078400768D5DFF8CCB100270BF13C0B02
:10141000DBF80000C0000BD4DBF8001041F0805175
:10142000CBF80010DBF80000012700F0805000909E
:101430006B4E3068C00510D4306840F48070306066
:10144000FFF72CFD009005E0FFF728FD0099401AFA
:10145000022850D83068C005F6D55E4EA0686C36BC
:1014600001280FD00528306810D020F0010030602E
:10147000306820F004003060A068B8B1FFF70EFDBE
:1014800000900FE0306840F00100F4E740F0040005
:101490003060F7E7FFF702FD0099411A41F288300A
:1014A000814266D830688007F4D50EE0FFF7F6FC7D
:1014B000009007E0FFF7F2FC0099411A41F28830F2
:1014C000814256D830688007F4D42FB1DBF8001081
:1014D00021F08051CBF80010A069C8B33D49091D27
:1014E0000968C1F3810102294AD00228504607D079
:1014F000C8F8600000E03CE0FFF7D0FC04463BE0A9
:101500004746C8F86000FFF7C9FC064605E000BF83
:10151000FFF7C4FC801B02282BD828688001F7D471
:10152000D4E907010843A16A2E4A490802EB0141A8
:10153000626A41EA8211084394F82C1040EA016182
:10154000C9F8001001203866FFF7A8FC044606E041
:101550003EE000BFFFF7A2FC001B022809D8286864
:101560008001F7D534E000BFFFF798FC001B02288C
:1015700002D90320BDE8F88F28688001F4D427E061
:101580000128F7D0D9F80000E26900F48001914207
:101590001CD1226A00F03F01914217D147F6C07179
:1015A000626A0140B1EB821F10D1A26A4FF0FF3393
:1015B00000F4403103EB5202B1EB024F06D194F834
:1015C0002C1000F07060B0EB016F01D00120D1E76A
:1015D0000020CFE70438024000004742800E474217
:1015E000007000400000FFFF7047704770B590F832
:1015F0003C20012A32D0012480F83C40022280F8AD
:101600003D2003685A689D6822F070060A683243DC
:101610005A60134B02689A4214D0B2F1804F11D035
:10162000104B9A420ED0104B9A420BD00F4B9A425D
:1016300008D00F4B9A4205D00E4B9A4202D00E4B67
:101640009A4204D1496825F080031943916080F8DB
:101650003D40002180F83C10084670BD022070BD5E
:10166000000001400004004000080040000C004061
:1016700000040140004001400018004010B5040083
:1016800003D094F83D0010B107E0012010BD002008
:1016900084F83C00204600F01FF8022084F83D004A
:1016A000211D206800F0A6FE012084F8460084F881
:1016B0003E0084F83F0084F8400084F8410084F83C
:1016C000420084F8430084F8440084F8450084F81C
:1016D0003D00002010BD000008B5006806498842A2
:1016E00008D10648016841F020010160006800F05F
:1016F0002000009008BD0000001400404038024067
:1017000090F83D10012901D001207047022180F896
:101710003D1000681149884214D0B0F1804F11D0BB
:101720000F4988420ED00F4988420BD00E4988429B
:1017300008D00E49884205D00D49884202D00D4993
:10174000884204D1816801F00701062903D00168AD
:1017500041F00101016000207047000000000140DD
:101760000004004000080040000C0040000401405C
:10177000004001400018004090F83D10012901D0C0
:1017800001207047022180F83D100168CA6842F0CC
:101790000102CA6000681149884214D0B0F1804F3C
:1017A00011D00F4988420ED00E4988420BD00E4905
:1017B000884208D00D49884205D00D49884202D0A0
:1017C0000C49884204D1816801F00701062903D041
:1017D000016841F0010101600020704700000140F4
:1017E0000004004000080040000C004000040140DC
:1017F0000040014000180040704770B50446006882
:1018000001694FF00005C943890715D4C168C94370
:10181000890711D4E91E01610120207720688069C1
:101820008007204602D0FFF7E7FF04E000F098F8B9
:10183000204600F096F8257720680169C9434907DA
:1018400017D4C168C943490713D46FF0040101617B
:10185000022020772068806910F4407F204602D063
:10186000FFF7CAFF04E000F07BF8204600F079F8AB
:10187000257720680169C943090716D4C168C9439F
:10188000090712D46FF00801016104202077206855
:10189000C0698007204602D0FFF7AEFF04E000F0E9
:1018A0005FF8204600F05DF8257720680169C9439C
:1018B000C90617D4C168C943C90613D46FF0100113
:1018C0000161082020772068C06910F4407F20461D
:1018D00002D0FFF791FF04E000F042F8204600F04C
:1018E00040F8257720680169C943C90708D1C16854
:1018F000C943C90704D1891E0161204600F032F8AE
:1019000020680169C943090609D4C168C9430906A9
:1019100005D46FF0800101612046FFF765FE206865
:101920000169C943490609D4C168C943490605D4B8
:101930006FF040010161204600F01EF82068016947
:10194000C94389060BD4C168C943890607D46FF01F
:10195000200101612046BDE87040FFF746BE70BD22
:101960007047704700680349884201D1FFF79CBA6D
:101970007047000000100040704770477047704784
:101980007047704710F83D1F4078084370470000CB
:10199000F8B5016804460868CA684B6910F00F0F73
:1019A0004FF0000556D003F0010602F4907737435C
:1019B00061D0C10705D0D10503D5216C41F00101EB
:1019C0002164410705D5D90703D0216C41F00201FC
:1019D0002164810705D5D90703D0216C41F00401AA
:1019E0002164010707D502F02001314303D0216CA7
:1019F00041F008012164216C00293BD0800604D508
:101A0000900602D5204600F0ADFD20684069216CAB
:101A1000C0F38010090700D440B3204600F054FD05
:101A20002068406940061ED52068143050E8001F29
:101A300021F0400140E80012002AF5D1A06B90B1DE
:101A40006C490165A06BFEF7D7FF002812D0A06B90
:101A5000016DCBE083060ED593060CD52046BDE87C
:101A6000F84000F07FBD2046616DBFE0616D20460B
:101A700088472564F8BD266B2023012E7BD1C6063E
:101A800079D5D60677D50868486800904869400639
:101A900040D5A16B086840680004000CEAD0A28D14
:101AA0008242E7D9E085C869B0F5807F2DD02068F3
:101AB0000C3050E8001F21F4807140E80012002A29
:101AC000F5D12068143050E8001F21F0010140E8F2
:101AD0000012002AF5D12068143050E8001F21F0D0
:101AE000400140E80012002AF5D184F83E30256319
:101AF00020680C3050E8001F21F0100140E800126F
:101B0000002AF5D1A06BFEF72EFFA08DE18D401AC3
:101B100081B229E0A08DE18D401A81B2E08D0028CC
:101B2000A8D00029A6D020680C3050E8002F22F45D
:101B3000907240E80026002EF5D12068143050E85D
:101B4000002F22F0010240E80026002EF5D184F893
:101B50003E30256320680C3050E8002F22F0100240
:101B600040E80023002BF5D1A26E01B02046BDE86D
:101B7000F0401047FFE705062CD515062AD594F846
:101B80003D0021287FF476AFA068B0F5805F01D1D9
:101B90002069B0B1206A411C216221680078486048
:101BA000E08C401E0004000CE084EBD12068C1688A
:101BB00021F08001C1602068C16841F04001C1602E
:101BC000F8BD206A0088C0F308004860206A801CC5
:101BD0002062E5E74006F3D55006F1D5CA682046F5
:101BE00022F04002CA6084F83D30A16C01B0BDE82B
:101BF000F0400847BD24000870B5040004D094F8F4
:101C00003D00002510B10DE0012070BD84F83C506E
:101C1000204600F081FCE06E08B91348E0660146FA
:101C200020468847242084F83D002068C16821F4BC
:101C30000051C160204600F0F5FC2068016921F4E4
:101C4000904101612068416921F02A0141612068C9
:101C5000C16841F40051C1602564202084F83D0032
:101C600084F83E00002070BD6D1C00082DE9F04393
:101C700087B0064614216846FEF74EFB5949D6F850
:101C800000C05948022503270722584B00248C45E1
:101C900022D1554914310E6846F010060E600968CD
:101CA00001F010010591016841F001010160006837
:101CB000029400F0010005907802CDE90005CDE91D
:101CC000037269461846FEF7E3FF0022052125202E
:101CD000FFF782F925205BE04349DFF814811031DA
:101CE000C4455AD1D1F800C04CF4003CC1F800C042
:101CF000096801F400310591016841F001010160BA
:101D00000068029400F0010005900C20CDE9000568
:101D1000CDE9037269461846FEF7BAFF364D3548DD
:101D20004FF000682860C5E901844FF48069C5E977
:101D300003496C61AC610420EC61C5E90840C5E968
:101D40000A7428462C63FEF739FF08B1FEF7DFFD61
:101D5000B563AE63284D274860351830E5E80208C2
:101D60004020A5E81102244845F814496030AC61D0
:101D7000EC612C626C62FEF721FF08B1FEF7C7FD33
:101D80007563002205212620AE63FFF725F9262082
:101D9000FFF714F907B0BDE8F083184B9C45F9D163
:101DA0000B6843F480230B60096801F480210591DE
:101DB000016841F0020101600068029400F0020035
:101DC00005904FF44060CDE90005CDE90372694606
:101DD0000B48FEF75DFF002205212720FFF7FCF8E6
:101DE0002720D5E7001001403038024000000240B3
:101DF0000044004088600240C804002000480040C1
:101E00000004024090F83E30202B0ED159B152B15F
:101E100090F83C30012B08D0012380F83C3000239F
:101E2000036300F085BC012070470220704710B5A5
:101E3000002372B190F83C40012C10D0012480F8AE
:101E40003C4090F83D40202C0BD090F83D401CB316
:101E500026E0016C41F020010164012010BD022048
:101E600010BD0D291CD2DFE801F007090B0D0F1181
:101E700013151B1B1B252700426416E0826414E027
:101E8000C26412E0026510E042650EE082650CE07B
:101E9000C2650AE0026608E00B290BD00C290BD0C2
:101EA000016C41F0200101640123002180F83C1005
:101EB000184610BDC266F8E70267F6E730B500685D
:101EC000114988420CD1114841880A0408D40246BD
:101ED0004C0412784FF0000306D50A2A01D0438043
:101EE00030BD41F400410DE00D2A09D0C1F30D04CD
:101EF000074D491C89B22A554180C729EFD830BD0A
:101F000041F48041418030BD0010014000000020BC
:101F10005C020020704700002DE9F843044690F869
:101F20003D001F4616460D4620284CD1C5B1BEB116
:101F300094F83C00012846D0012084F83C004FF082
:101F40000008C4F84080212084F83D00FEF7A6FF79
:101F5000A6848146E684A068B0F5805F03D004E0E3
:101F60000120BDE8F883206928B12E465FF0000506
:101F700084F83C800EE00026FAE78021204600F03D
:101F8000F4FBA0B9AEB116F8010B21684860E08CF3
:101F9000401EE084E08C4B464FF000020097002882
:101FA000EBD14FF04001204600F0DFFB30B10320C1
:101FB000D7E735F8020BC0F30800E6E7202084F8E5
:101FC0003D000020CDE70220CBE770477047FEE7D9
:101FD00010B5FEF741F9002800D0012010BD000027
:101FE0000D4808B5016841F4001101600068002245
:101FF00000F40010009005211020FEF7EDFF1020E6
:10200000FEF7DCFF002205211120FEF7E5FFBDE809
:1020100008401120FEF7D2BF3038024038B51248D0
:10202000FFF76EFB11A002F017F800204FF4E13328
:1020300002220121009001F089FA01F0A3F816A014
:1020400002F00AF81F4A00211F4801F0ADFF1F4CA3
:1020500020601FA002F000F81A4A002124321E4816
:1020600001F0A2FF606038BD240300202E2E2F4314
:102070006F72652F5372632F6672656572746F732A
:102080002E63205B695D3A206265666F726520652C
:102090004D42496E69740A002E2E2F436F72652FD0
:1020A0005372632F6672656572746F732E63205B63
:1020B000695D3A20616674657220654D42496E69BA
:1020C000740A000000620008FD49000804000020B6
:1020D00064656275670A0000294A00082DE9F0412D
:1020E00086B014216846FEF717F92B4800240168D2
:1020F00041F004010160016801F0040105910168EB
:1021000041F020010160016801F0200105910168A2
:1021100041F080010160016801F0800105910168D2
:1021200041F001010160016801F0010105910168C0
:1021300041F002010160016801F0020105910168AE
:1021400041F0400101600068144F00F040004FF47E
:10215000C0650590002229463846FEF799FEDFF853
:102160004080BE15002231464046FEF791FE0095A4
:102170000125CDE90154694638460394FEF788FDF0
:102180000096CDE90154694640460394FEF780FD70
:1021900006B0BDE8F0810000303802400014024073
:1021A000001802401CB500240E4800940C4901940C
:1021B000C0E900144FF6FF71C0E902418461FFF7E6
:1021C0005DFA08B1FEF7A3FB009469460548019447
:1021D000FFF70CFA002801D0FEF799FB1CBD0000A8
:1021E00000140040240300200C4810B50A49016087
:1021F0004FF4E1314160002181600C22C160C0E9EF
:1022000004128161C161FFF7F7FC002803D0BDE82B
:102210001040FEF77CBB10BD001001406C03002095
:102220000C4810B50A4901604FF4E13141600021CA
:1022300081600C22C160C0E904128161C161FFF7B5
:10224000DBFC002803D0BDE81040FEF760BB10BDEA
:1022500000440040E00300200C4810B50A4901602A
:102260004FF4E1314160002181600C22C160C0E97E
:1022700004128161C161FFF7BFFC002803D0BDE8F3
:102280001040FEF744BB10BD00480040540400203D
:10229000FEE7FEF7E5FFFEE7F0B5502383F3118874
:1022A000BFF34F8FBFF36F8F4FF48474002315E09B
:1022B0000D7887880668F55585886D1C858085882A
:1022C000A54200D983808588C688B54206D1C588D5
:1022D0006D1CC580C588A54200D9C380521EE7D2B7
:1022E000002080F31188F0BDF8B54FF0FF350C4E9B
:1022F00000952C46B06800680168890601D54068E1
:10230000C4B20094641C06D00548012269460C3012
:10231000FFF7C2FFEDE7034800688047F8BD000003
:1023200074010020CC00002010B54FF0E0200069BF
:1023300003F07AFD012803D0BDE8104003F0A8BAED
:1023400010BD000030B593B030216846FDF7E4FFC2
:1023500014210CA8FDF7E0FF1D480025016841F09D
:1023600080510160006800F08050119019480168A8
:1023700041F4804101600068022400F48040119023
:1023800001200090000401908001CDE9064008AAD8
:102390000420A82182E813000B906846FEF76EFF28
:1023A00008B172B6FEE70CA90F2081E831004FF4A6
:1023B000A0500F904FF48050109005210CA8FEF70C
:1023C0003FFE08B172B6FEE7FEF7D4FE13B030BD93
:1023D00040380240007000400248016841F470013A
:1023E0000160704788ED00E00148FFF706BA000081
:1023F00088050020F0B50268254C264D264E274F53
:10240000274B4FF0804CA04209D0604507D0A8422E
:1024100005D0B04203D0B84201D0984204D122F096
:10242000700E4A6842EA0E02A0421BD0604519D0E5
:10243000A84217D0B04215D0B84213D0984211D05C
:10244000184DA8420ED0184DA8420BD0174DA842E7
:1024500008D0174DA84205D0164DA84202D0164DFF
:10246000A84203D122F44075CA682A434D6922F07C
:1024700080022A4302608A68C2620A688262A042BD
:1024800001D0984201D10969016301214161F0BD88
:10249000000001400004004000080040000C004023
:1024A0000004014000400140004401400048014058
:1024B00000180040001C004000200040806B0021FC
:1024C000C185C184416D084701680C3151E8002F76
:1024D00022F4907241E80023002BF5D101681431F9
:1024E00051E8002F22F0010241E80023002BF5D132
:1024F000016B012909D101680C3151E8002F22F04C
:10250000100241E80023002BF5D1202180F83E1075
:102510000021016370470000094941640949816451
:102520000949C1640949016509494165094981654C
:102530000949C1650949016609498166704700007A
:10254000CD1F0008CB1F0008151F0008BD1E000886
:10255000831900087D190008811900087F190008F7
:102560007B19000808B590F83E10222901D00220FE
:1025700008BD82684FF480539A4201D1016921B1AC
:10258000816A9A421BD04AB10AE00268816A5268A5
:10259000C2F308020A80816A891C08E0026972B1EC
:1025A0000268526802F07F020A70816A491C8162E7
:1025B000C18D491E0904090CC18503D019E00268C8
:1025C0005268F1E70168CA6822F02002CA60016817
:1025D000CA6822F48072CA6001684A6922F0010266
:1025E0004A61202180F83E10016B012903D0016D62
:1025F0008847002008BD0021016301680C3151E8C3
:10260000002F22F0100241E80023002BF5D10168D1
:102610000A68D20602D50A6849680091826E818DE7
:102620009047E6E770B5044600680169E26821F466
:102630004051114301612169A068E2690843616961
:10264000114308432168CA6849F20C639A43024364
:10265000CA6020684169A26921F440711143416157
:1026600031492068884202D03049884202D1FEF7C1
:10267000B7FD01E0FEF7A4FDE269002319216425FE
:102680003226B2F5004F626828D0A0FB0101930FFB
:102690009200FDF7F7FD0146B0FBF5F06FF0180270
:1026A000504301EB800006EB0010B0FBF5F000F0AA
:1026B000F002B1FBF5F002EB0012B1FBF5F06FF0A8
:1026C0001803584301EB800006EB0010B0FBF5F057
:1026D00000F00F0021681044886070BDA0FB01016C
:1026E00092185B41FDF7CEFD0146B0FBF5F002010B
:1026F000B1FBF5F06FF01803584301EB800006EBD7
:10270000C000B0FBF5F000F0F80002EB4002B1FBB6
:10271000F5F0584301EB800006EBC000B0FBF5F08C
:1027200000F00700D6E7000000100140001401404F
:1027300081628285C28500210164222280F83E20C8
:1027400080F83C10016921B10168CA6842F48072C6
:10275000CA6001684A6942F001024A610068C168C2
:1027600041F02001C160002070472DE9F0419846FA
:1027700017460E460446069D27E0681C25D02DB15D
:10278000FEF78CFBA0EB0800A8421ED920680C3095
:1027900050E8001F21F4D07140E80012002AF5D162
:1027A0002068143050E8001F21F0010140E80012B9
:1027B000002AF5D1202084F83D0084F83E00002056
:1027C00084F83C000320BDE8F0812068006836EA08
:1027D000000004D00020B842CFD00020F3E7012051
:1027E000F9E7000010B50848FFF7D2F80648FFF7F0
:1027F000C9F82028FAD1012204490348FFF702FB57
:102800000028F8D110BD00006C030020000000205B
:1028100038B50D4C20680068800606D5216D20462D
:10282000884721686FF02000086020680168090768
:1028300003D541680168416800910168490602D5E5
:102840006FF04001016038BDE003002038B50D4C49
:1028500020680068800606D5216D204688472168DB
:102860006FF02000086020680168090703D54168FF
:102870000168416800910168490602D56FF0400186
:10288000016038BD54040020FEE7000037B514464F
:102890000846064B6A46214600F0ECF804466946B5
:1028A000002000F06AFC20463EBD00007B3100089D
:1028B0000907090E002804DB00F1E02080F800146D
:1028C000704700F00F0000F1E02080F8141D704701
:1028D00002E008C8121F08C1002AFAD170477047E9
:1028E000002001E001C1121F002AFBD17047000047
:1028F0002DE9FF5F82B00021DDE90430020DDDF833
:1029000040B0034318D044F61050A2F2FF324243C5
:102910001514119801281FD0A5EB0B00401C5FEA8D
:10292000000A4FF000064E4FDFF83891B04650468F
:1029300015D5CAF1000413E0119801244AA3012817
:1029400001D16FEA0B010298119AC0E90031C0E988
:10295000024206B0BDE8F09FCBF10000DFE704467D
:102960000021404A491842EB0450CDE9001012E022
:10297000E00707D032463B4640464946FDF7BAFDE0
:102980008046894632463B4610461946FDF7B2FD61
:1029900006460F466410002CEAD1DDE90401DDE9AA
:1029A0000023BAF1000F06DAFDF7A4FD42464B46BC
:1029B000FDF7A0FD05E0FDF70FFE42464B46FDF793
:1029C0000BFE04460E460022284BFDF78DFE03D871
:1029D0004FF0FF30014607E00022254B20463146EC
:1029E000FDF7E1FCFDF767FE102409E0002C0ADB8F
:1029F0000A220023FDF746FC039B30321A55641E61
:102A000050EA0102F2D1641C039AC4F11103144488
:102A1000119A012A03D0012208430DD10AE008438C
:102A200004D000204FF0110B119072E7A3EB0B05BF
:102A30006D1E0DE05B4504DD4FF0000205F1010560
:102A400004E003DA4FF00002A5F10105002AECD002
:102A500002981199C0E90231C0E9004579E7000008
:102A6000000014400000F03F300000000000F04380
:102A70000000E03F2DE9FF4F95B09A468846064694
:102A80000025EEE1252877D100242746F94A0121C7
:102A9000039400E0044316F8013F203B01FA03F0E1
:102AA0001042F7D130782A2811D06FF02F033078F8
:102AB000A0F13002092A16D8039A44F0020402EB6E
:102AC000820203EB42021044761C0390EFE758F8B1
:102AD000042B0392002A03DA504244F4005403907A
:102AE00044F00204761C30782E2816D116F8010F17
:102AF00044F004042A280DD06FF02F023078A0F1A2
:102B00003003092B09D807EB870302EB4303C718EF
:102B1000761CF3E758F8047B761C30786C280FD0CD
:102B200006DC4C2817D068280DD06A2814D104E0A0
:102B3000742810D07A280FD10DE044F400140AE074
:102B400044F4801401E044F440147278824202D1CB
:102B500004F58014761C761C307866280BD013DCC4
:102B6000582877D009DC002875D04528F6D04628AB
:102B7000F4D047281AD193E118E0632835D06428AF
:102B800079D0652812D18BE1702873D008DC6728D2
:102B9000F1D069286FD06E280DD06F2806D1ACE037
:102BA00073282CD0752874D0782853D052461799A2
:102BB00090476D1C54E1C4F30250022809D0032849
:102BC0000DD0D8F8001004280DD00D6008F10408CD
:102BD00046E1D8F80010EA17C1E90052F6E7D8F844
:102BE00000100D80F2E70D70F0E718F8041B8DF867
:102BF000001000208DF80100EB46012003E058F89A
:102C000004BB4FF0FF3061074FF0000102D40DE02C
:102C100009F101018946B9420FDA8145F8DB1BF859
:102C200009100029F4D108E009F101018946814227
:102C3000FADB1BF809100029F6D103985346A0EBE4
:102C4000090721463846179A00F080FA284400EB1D
:102C5000090507E044E008E10DE01BF8010B5246CE
:102C600017999047B9F10109F7D2534621463846E2
:102C7000179AF2E039E00A21C4F302524FF0000B38
:102C80000091022A06D058F8040BC117032A09D074
:102C90000AE023E008F1070020F00702F2E8020151
:102CA000904605E000B2C117042A01D140B2C11715
:102CB000002906DA0A460021404261EB02012D227A
:102CC00002E0220504D52B228DF80420012203E026
:102CD000E20701D02022F7E7914657E00A2100E001
:102CE00010214FF0000B00910BE010214FF0000B72
:102CF00044F004040827009103E008204FF0000B83
:102D00000090C4F30252022A05D058F8040B0021A7
:102D1000032A08D008E008F1070020F00702F2E8D3
:102D20000201904603E080B2042A00D1C0B24FF005
:102D3000000922072AD53278702A07D0DDF800C0B2
:102D40008CF0100C5CEA0B0C05D00EE040228DF8E4
:102D50000420012208E050EA010306D030238DF858
:102D600004308DF8052002229146009B83F0080371
:102D700053EA0B030AD150EA010201D1620705D5DB
:102D800030228DF804204FF001097F1E3278582A36
:102D900004D039A20C920CAA02920BE03BA2F9E7F4
:102DA0005B46009AFDF76EFA0C9B9B5C029A521EE2
:102DB0000292137050EA0102F2D1029804A9081A93
:102DC00000F1200B600702D524F4803400E00127D5
:102DD0005F4502DDA7EB0B0000E0002000EB0B01DC
:102DE000009003984944401A0390E00306D45346E8
:102DF0002146179A039800F0A9F90544002706E038
:102E000001A85246C05D179990476D1C7F1C4F4525
:102E1000F6DBE0030CD553462146179A039800F0E1
:102E200095F9054404E030205246179990476D1CEF
:102E30000099481E00900029F5DC08E002980299EC
:102E400052460078491C0291179990476D1CBBF1BE
:102E50000001ABF1010BF1DC5BE100F065F9054429
:102E6000761C307800287FF40DAE19B02846BDE8F6
:102E7000F08F000009280100303132333435363705
:102E800038396162636465660000000030313233B6
:102E90003435363738394142434445460000000056
:102EA000600700D4062708F1070020F00700F0E8CB
:102EB0000223804603F0004C5FEA0C0001D097A08B
:102EC00009E0200501D596A005E0E00701D095A016
:102ED00001E0AFF24C001390307823F000436528F6
:102EE0000CD006DC452809D046281DD047287FD1C4
:102EF0003BE0662818D067287AD136E00021112FF0
:102F000001DB112000E0781CCDE9000104A90CA828
:102F1000FFF7EEFCDDE90D010C9A4FF0000B07F115
:102F20000109109200914EE04FF000400097CDE96A
:102F3000011004A90CA8FFF7DBFCDDE90D020C9BD6
:102F40000F994FF0000B91461093009211B9791C24
:102F500000EB0109B7EB090003D4C0F1FF3B07F117
:102F60000109A9EB0700019042E0012F00DA0127D7
:102F70000021112F01DD112000E03846CDE90001CC
:102F800004A90CA8FFF7B4FCDDE90D010C9A00912F
:102F90004FF0000BB946109221070FD4009A4A4512
:102FA00003DA914601E0A9F10109B9F1010F05DD4C
:102FB000109AA9F10101515C3029F4D0B84202DA2B
:102FC00010F1040F03DA0121CDE9011010E000280F
:102FD00003DC8344A9EB000102E0411C494500DD0C
:102FE0008946A0EB0B00401C01904FF0004002907E
:102FF000200705D40198484502DB4FF0FF300190CF
:1030000000208DF84B0002980DF14B07B0F1004FF6
:1030100025D002200C902B200D90029800280CDA6D
:10302000404202902D200D9007E00A210298FDF702
:1030300085F93031029007F8011D0C99481E0C905B
:103040000029F2DC02980028EFD1791E0D98087053
:10305000307800F0200040F0450007F8020D11A87C
:10306000C01BC01D02901398007800B1012000EB36
:103070000901019801EBE071029801440398401A9C
:10308000401E0390E00306D453462146179A039846
:1030900000F05CF805441398007818B1524617996F
:1030A00090476D1CE00323D553462146179A039899
:1030B00000F04CF805441BE0BBF1000F07DB009863
:1030C000584504DD1098179910F80B0001E0179986
:1030D00030205246904701980BF1010B401E05F13C
:1030E0000105019004D12E205246179990476D1C7E
:1030F000B9F10001A9F10109DEDC05E017F8010BC7
:103100005246179990476D1C0299481E029000295B
:10311000F4DC53462146179A03989EE62D000000E2
:103120002B000000200000002DE9F041044600259E
:103130001E461746880404D405E039462020B047CF
:103140006D1C641EF9D52846BDE8F0812DE9F041DB
:10315000044600251E469046C80301D5302700E0EE
:103160002027880404D505E041463846B0476D1C49
:10317000641EF9D52846BDE8F0810A68531C0B602F
:103180001070704770B5064D00242878012802D0D1
:103190000624204670BD2869804700202870F8E783
:1031A000AC00002070B50C460988002505292FD1F8
:1031B000417840F2CF760A0281781143C278491CE7
:1031C0001302027989B21A43531EB34220D200235C
:1031D0002380012300F8013B2688761C26805607B1
:1031E00003D003EBD203DEB201E0C2F3C70600F85E
:1031F000016B23885B1C2380002300F095FD18B130
:1032000001F057FB054604E020883044208000E0B0
:103210000325284670BD70B50C4609880025052990
:103220002FD1417840F2CF760A0281781143C278DB
:10323000491C1302027989B21A43531EB34220D2A9
:1032400000232380022300F8013B23885B1C23809A
:10325000530704D0012303EBD203DEB201E0C2F333
:10326000C70600F8016B23885B1C238000F0ACFDCF
:1032700018B101F01EFB054604E020883044208090
:1032800000E00325284670BD70B50C46098800266D
:10329000052928D1417805790A0281781143C2783D
:1032A000491C45EA02256A1E89B27C2A1BD80022E5
:1032B0002280032200F8012B22880023521C228046
:1032C0006A0000F8012B2288521C22802A4600F056
:1032D000B5FD18B101F0EDFA064605E0208800EBD7
:1032E0004500208000E00326304670BD70B50C46D6
:1032F00009880026052927D1417805790A028178B5
:103300001143C278491C45EA02256A1E89B27C2A0B
:103310001AD200222280042200F8012B2288521C9B
:1033200022806A0000F8012B2288521C22802A4643
:1033300000F0BCFD18B101F0BCFA064605E020889B
:1033400000EB4500208000E00326304670BD2DE9EB
:10335000F0410446088800270D460A2842D36078C9
:1033600026790102A078227A0843401C1FFA80F8CF
:10337000E07846EA00266079731E0102A0790843CE
:10338000401C81B2E0797C2B42EA0022607A28D886
:103390003AB3792A25D8B0EB420F22D1012304F1A8
:1033A0000A0000F04BFD98B90021298017212170F7
:1033B0002988601C491C2980710000F8011B29889C
:1033C0000023491C29803246414600F037FD18B1E0
:1033D00001F06FFA074605E0288800EB46002880D8
:1033E00000E003273846BDE8F081000070B5064CC8
:1033F0000D4606492288401CFCF775FF2088401CBA
:103400002880002070BD00009C000020A44E0020F9
:1034100038B50988002405290BD141780A02817842
:103420001143491C027989B21AB9C278FF2A03D024
:1034300012B10324204638BD00228DF80120C07847
:10344000FF280CD08DF8002001231A46684600F0B2
:103450006BFC0028EED001F02CFA0446EAE70120CC
:103460008DF80000F0E710B509880024052902D086
:103470000324204610BD417801230A028178C01C34
:103480001143491C89B21A4600F0D8FC0028F0D03C
:1034900001F00FFA0446ECE72DE9F0410D460988EA
:1034A0000024052926D9417843790A0281781143FD
:1034B000491C8EB2C178027942EA0122510704D038
:1034C000012101EBD201C9B201E0C2F3C701571ECD
:1034D000B7F5F66F0ED299420CD101233146801D0B
:1034E00000F022FC18B101F0E4F9044603E00520E5
:1034F000288000E003242046BDE8F08170B50D4629
:103500000988002406291DD341780A0281781143D5
:10351000C278491C1302027989B21A434379561EB4
:10352000772E0FD85606360E9E420BD10123801DF2
:1035300000F084FC18B101F0BCF9044603E005205A
:10354000288000E00324204670BD00002DE9F041F2
:103550001D46069B1746064629B1F72903D8134C8A
:10356000084621710EB102251BE011492161114964
:1035700061611149E1601149A1610021E1611049D6
:103580002162104961621049A1622A46394600F061
:103590002BFB050005D101F0FBFE28B1667101206F
:1035A00020702846BDE8F0810325FAE7AC00002032
:1035B000E93C00080D3D00087D3C0008313C000856
:1035C0007956000801570008D9560008F8B50E468C
:1035D0000546002401F0D6FE28BB3088022823D3FC
:1035E000684601F0D7FA009841780A0281781143C1
:1035F000C278491C1302027989B21A43500704D0D9
:10360000012000EBD200C0B201E0C2F3C7005AB102
:103610006B78834208D10023A81C00F001FA10B196
:1036200001F047F9044600E003242046F8BDF8B550
:103630000E460546002401F0A5FE20BB3088022876
:1036400022D3684601F0A6FA009841780A028178F0
:103650001143C278491C1302027989B21A435007F8
:1036600004D0012000EBD200C0B201E0C2F3C700D9
:1036700052B16B78834207D1A81C00F00FFA10B149
:1036800001F017F9044600E003242046F8BDF8B520
:103690000E460546002401F075FEF8B93088022870
:1036A0001BD3684601F076FA009841780A028178C7
:1036B0001143C278491C1302027989B21A430CD013
:1036C0006878B0EB420F08D10023A81C00F024FA60
:1036D00020B101F0EEF8044600E003242046F8BDD6
:1036E000F8B50E460546002401F04CFEF0B93088CE
:1036F00002281AD3684601F04DFA009841780A0270
:1037000081781143C278491C1302027989B21A43A5
:103710000BD06878B0EB420F07D1A81C00F030FA4C
:1037200020B101F0C6F8044600E003242046F8BDAD
:10373000F8B50D460646002401F024FE68BB288833
:1037400002282CD3684601F025FA009841780579C3
:103750000A0281781143491C8FB2C17845EA0125DC
:1037600041790A0281791143C279491C1302027A14
:1037700089B21A437378B3EB450F0FD101230A3096
:1037800000F0CAF930B900232A463946B01C00F0CF
:10379000C3F910B101F08DF8044600E0032420467F
:1037A000F8BD38B50988002405290BD141780A02F3
:1037B00081781143491C027989B21AB9C278FF2A6B
:1037C00003D012B10324204638BD00228DF8012019
:1037D000C078FF280CD08DF8002001231A466846D7
:1037E00000F01EF90028EED001F063F80446EAE785
:1037F00001208DF80000F0E710B5098800240529A4
:1038000002D00324204610BD417801230A028178AA
:10381000C01C1143491C89B21A4600F07DF90028EA
:10382000F0D001F046F80446ECE738B505460888C4
:103830000024052802D001F0A5FD18B3684601F068
:10384000A9F968782A790102A8780843401C81B256
:10385000E87842EA002200985307457904D0012312
:1038600003EBD203DBB201E0C2F3C70352B1AB42B8
:1038700008D10123801D00F0D3F820B101F019F820
:10388000044600E00324204638BD38B508880024EB
:10389000052802D001F076FDD0B1684601F07AF932
:1038A000009841780A0281781143C278491C1302BA
:1038B000027989B21A434379B3EB420F08D101234D
:1038C000801D00F029F920B100F0F3FF044600E06C
:1038D0000324204638BD0000F8B5504C607818B17C
:1038E000032801D00620F8BD684601F007FD002836
:1038F00022D0BDF8000004281FD004DC012807D026
:10390000022819D107E0082856D0102814D15FE00A
:10391000032060707EE0414AE3690832111D901F68
:10392000984728B9A0786179884201D1042001E044
:1039300001203BE001F000FD6EE0E1680122087823
:10394000E0702271C20902D0487820712BE0334F19
:103950000026303717F8361009B3814220D10120F4
:10396000207001F00FFD80B101F084F82081012565
:1039700007EBC6066571294972680831E06890470F
:103980006D1C2071102DF5DD07E007EBC600234903
:1039900042680831E068904720710020207002E002
:1039A000761C102ED6DB207918B10220A0711020D1
:1039B000C0E701F0CFF82DE018480C3001F0EAF82C
:1039C00001F058F8D4E9031302466079984723E0E0
:1039D0001248A5790C3001F0DDF825B1012D0AD08F
:1039E000022D17D10FE001F045F802466079E16839
:1039F00001F0C8F80EE001F03DF802466079E16898
:103A000001F0B8F806E001F035F802466079E168A7
:103A100001F0A8F801F0C4F80020F8BD9C010020D6
:103A20002DE9F0470C469046012106464FF000096B
:103A300001EBD80501F002F81649641E01EBC0073E
:103A40001548083F4188A0B200EB0802402A1BD865
:103A5000401AC0F3CC0400F0070A0AE03819641CCD
:103A600016F8013BA4B20822514601F082FE6D1EF9
:103A7000ADB2012DF2D818F0070207D0337838190B
:103A8000514601F076FE01E04FF001094846BDE8DD
:103A9000F0870000DA5400204C0200202DE9F047A6
:103AA0000C469046012106464FF0000901EBD8056F
:103AB00000F0C4FF1649641E01EBC0071548083F1B
:103AC0000188A0B200EB0802402A1BD8401AC0F3BC
:103AD000CC0400F0070A0AE03819641C16F8013B10
:103AE000A4B20822514601F044FE6D1EADB2012D74
:103AF000F2D818F0070207D033783819514601F090
:103B000038FE01E04FF001094846BDE8F0870000AB
:103B10005A5400204C0200202DE9F04115460F4672
:103B20000446002600F08AFF00EBC00101EB001004
:103B300011497F1E01EBC0011048C839C288B8B2D4
:103B40004319642B13D8801A80B20DE014F8012BAE
:103B5000120221F8102014F8013B1A4321F810201A
:103B6000401C6D1E80B2ADB2002DEFD100E00126E9
:103B70003046BDE8F0810000DA6100204C020020F0
:103B80002DE9F04115460F460446002600F056FF89
:103B900000EBC00101EB001011497F1E01EBC001D9
:103BA0001048C8398288B8B24319642B13D8801AD8
:103BB00080B20DE014F8012B120221F8102014F845
:103BC000013B1A4321F81020401C6D1E80B2ADB29B
:103BD000002DEFD100E001263046BDE8F081000065
:103BE0005A5500204C0200202DE9F0411F46154691
:103BF0000E460024FCF789FE3B4608222946304643
:103C000001F030FC60B1B5F5964F01D9232003E0F7
:103C100006496800B1FBF0F080B201F00DFD00B97B
:103C20000324FCF776FE2046BDE8F081A07F170054
:103C30002DE9F0411646884607460025FCF765FE4B
:103C40000C4CA088042804D3A1880B4800F0FCFE8B
:103C500028B10525FCF75DFE2846BDE8F081064841
:103C600000783870A088C01E30800348401CC8F817
:103C70000000EFE7A0000020C44E00202DE9F04135
:103C800090460E4607460025FCF73FFE144C607830
:103C9000012806D05FF00505FCF73BFE2846BDE88D
:103CA000F081701E0126A06066800770628802EBBA
:103CB00008016180618800F0C7FE6188094A5318D5
:103CC000491C61801870010A60880244401C6080B1
:103CD000117026700121002000F06CFFDCE700006D
:103CE000A0000020C44E002010B5FCF70EFE0649CF
:103CF000002048700146012000F05CFF00F0C6FF84
:103D0000BDE81040FCF705BEA000002010B5FCF790
:103D1000FCFD0021084600F04DFF00F0A5FFBDE8C6
:103D20001040FCF7F6BD00002DE9F04704460120E5
:103D3000244F00EBD206A7F11000491E458888B237
:103D400081184FF00009402936D8401BC0F3CC053C
:103D500000F0070A02F007086BB1012B2ED120E01A
:103D600078196D1CADB20822514601F0F1FC761EA7
:103D700004F8010BB6B2002EF2D114F8012DC8F1EF
:103D800008018A40D0B2C840207017E078196D1C35
:103D900014F8013BADB20822514601F0EAFC761E50
:103DA000B6B2012EF2D85FEA080207D0237878195C
:103DB000514601F0DEFC01E04FF001094846BDE844
:103DC000F0870000680100202DE9F04704461746FF
:103DD0000120DFF8649000EBD705A9F10800491E27
:103DE000028888B2C1194FF0000840291FD8801AF4
:103DF000C0F3CC0600F0070A0CE000BF09EB060098
:103E0000761CB6B20822514601F0A2FC6D1E04F8E1
:103E1000010BADB2002DF1D107F0070014F8012D10
:103E2000C0F108018A40D0B2C840207001E04FF0D4
:103E300001084046BDE8F08760010020F0B51A4E49
:103E4000491E89B20025174CF6888F18642F26D892
:103E5000891B89B27BB1012B22D11DE034F81130CE
:103E60001B0A00F8013B14F81130491C521E00F8DF
:103E7000013B89B292B2002AF0D111E010F8013B67
:103E80001B0224F8113010F8016B334324F8113071
:103E9000491C521E89B292B2002AEFD100E00125DE
:103EA0002846F0BD8C5000205801002070B5114DFF
:103EB000491E89B200240E4BAD888E18642E13D88B
:103EC000491B89B20DE000BF33F811502D0A00F8EC
:103ED000015B13F81150491C521E00F8015B89B2B6
:103EE00092B2002AF0D100E00124204670BD00000B
:103EF000C44F002058010020EFF30580002800D0B7
:103F000001207047FCF7D8FFFEF71CFAFEF7E6F831
:103F1000FEF766F8FEF768F9FEF782F9FEF79CF9FE
:103F2000FEF740F900F012F8FEF778F800F020F8FC
:103F3000FEE710B5EFF3058111B16FF0050403E062
:103F4000002408B100F094FF204610BDEFF3058077
:103F500010B16FF0050070470448016811B14FF0CF
:103F6000FF30704701210160002070476C00002085
:103F700010B5EFF3058010B16FF0050010BD0848D3
:103F80000168012902D04FF0FF3010BD054A002121
:103F900082F8141D0221016001F032F8002010BDEA
:103FA0006C0000200BE000E02DE9FF414FEA010327
:103FB0004FF00005EFF30581039549BB40B380271F
:103FC000182100244AB3166806B1344696691EB11A
:103FD0003146761E382E02D21679F60703D000201D
:103FE00004B0BDE8F081566906B1B708D2F808C040
:103FF000BCF1000F0DD0D5685C2D18D312693AB111
:1040000036B18DE806103A46214601F0E2FE0390F3
:104010000DE0D6685EB912694AB903AACDE900126B
:10402000BAB2214601F0A8FE012800D003950398FA
:10403000D6E70000EFF3058010B16FF00500704780
:10404000044A4FF0805100201160BFF34F8FBFF33F
:104050006F8F704704ED00E00FB400B591B0FFF72B
:104060004BFF48B1502080F31188BFF34F8FBFF34F
:104070006F8F06E0FFF7DEFF0F48FDF783FC212876
:10408000F8D013AA68461299FEF700FC002808DD54
:104090006846FCF74CF982B2642369460648FDF78E
:1040A0003BFFFFF729FF002802D0002080F3118892
:1040B00011B05DF814FB00006C0300202DE9F04105
:1040C000134C0F460546E6682068001D00F0D8FC3A
:1040D000681C07D137B12168BDE8F0410D48091DC2
:1040E00000F02CBD20683544B5424560216805D2FA
:1040F000A06BBDE8F041091D00F008BD606B091D13
:1041000000F004FDA06A854200D2A562BDE8F081FE
:104110001C000020C00A00202DE9F041054600F0F7
:10412000CFFD2D4CA068401CA06020682B4F10B123
:10413000606930B32BE02560A068012827D10026F4
:1041400006EB860007EB800000F0D2FC761C382ED0
:10415000F6D3234800F0CCFC2148143000F0C8FC12
:104160001F48283000F0C4FC1D483C3000F0C0FC63
:104170001B48503000F0BCFC194860631430A06349
:1041800005E02068E96AC06A884200D82560606A54
:10419000401C60626864E86A2169884200D9206135
:1041A00000EB800007EB8000291D00F0C7FC00F049
:1041B000A7FD606900280CD02068E96AC06A8842BF
:1041C00007D208494FF080500860BFF34F8FBFF30C
:1041D0006F8FBDE8F08100001C0000201006002059
:1041E000700A002004ED00E038B500F069FD104CC5
:1041F0002068C8B90F4800F07BFC0E48143000F06E
:1042000077FC0C48E060143020610A4B0020F03B42
:10421000009003F1500210210A2001F04FFB2060B2
:1042200010B105A100F0EEFDBDE8384000F068BD1A
:1042300058000020C40B0020546D72510000000093
:1042400030B4026C0B46002A0BD0C1681144C16027
:104250008468A14201D30168C16030BC1846FCF7F4
:1042600042B830BC70472DE9F041856B17460446D3
:104270000026026C82B1C7B1E068FCF734F8E1684F
:10428000206C091AE1602268914202D2A168081AE2
:10429000E060022F16D017E02068A8B9A06801F0EE
:1042A00043FE06460020A0600EE06068FCF71BF8A5
:1042B000216C606808446060A168884204D320686B
:1042C000606001E005B16D1E6D1CA5633046BDE860
:1042D000F08110B5044690F8590058B101280CD06F
:1042E00002280FD0502080F31188BFF34F8FBFF307
:1042F0006F8FFEE7206B00F017FD2046BDE81040F1
:1043000000F012BD10BD000010484FF4705142077C
:1043100006D0C01D0D4920F00700411AC1F57051AB
:104320000B4A00230144C2E900030839183A21F07E
:10433000070111604B600B600B1AC0E9001393601A
:104340004FF000405360506170470000A4120020FD
:1043500088000020144E154CA6F29C474FF0805860
:10436000DFF84C9012E000BF00F0AAFCF068C568CE
:10437000281D00F085FBA068401EA0606068401EFC
:10438000606000F0BDFC2846FFF7A3FF60680028CE
:10439000EAD138680128F9D9C9F80080BFF34F8FF6
:1043A000BFF36F8FF2E70000AC0A00201C00002072
:1043B00004ED00E070B51D46049C51B1C4F8002026
:1043C000C4E90F010121204601F0ACFA84F84C50F9
:1043D00070BD2460F4E700002DE9F05F8846DDE958
:1043E0000B941546834691009A460A9EA522206B9F
:1043F000FBF78BFF6FF00301206B01EB8501084495
:1044000020F00707780707D0502080F31188BFF30A
:104410004F8FBFF36F8FFEE70025B8F1000F0FD06D
:104420005FF00000221818F8001082F8341018F815
:10443000001011B1401C1028F4D384F8435001E05F
:1044400084F83450382E00D33726E662C4E9136569
:10445000201D00F058FB04F1180000F054FB24610B
:10446000C6F138006462A061656584F85850524610
:104470005946384600F098FA2060B9F1000F01D093
:10448000C9F80040BDE8F09F2DE9F0471E46DDE980
:10449000089417460D00804615D0002C11D0FFF768
:1044A000A3FE04F11801C4F8008081E86002201D19
:1044B00000F029FB002F04D014F8280F40F004006E
:1044C0002070BDE8F087502080F31188BFF34F8F34
:1044D000BFF36F8FFEE7000030B5114900E01146D1
:1044E0000A688242FBD34B685C18844203D140685F
:1044F00018444860084643681C18944209D1084C87
:10450000183C2468A24209D052681A4442600A68E2
:1045100012680260814200D0086030BD0460F9E793
:104520008800002070B5002441600B4D006191426D
:1045300006D8D11A8269914206D2011D286907E086
:104540009A4203D2994201D3012403E0011DE86895
:1045500000F0DCFA204670BD5800002010B504467B
:1045600000F0AEFBA06B28B15FF0000400F0C8FBC8
:10457000204610BD0124F9E730B589B03C4D6EE00E
:104580000498002806DADDE90601059A90470498A8
:10459000002864DB069C606910B1201D00F070FAF1
:1045A00003A800F0D7F8024604980A2857D2DFE89B
:1045B00000F00505052D334A05052D3394F8280034
:1045C00040F0010084F828000599A069059B01448A
:1045D0002046FFF7A7FF68B3216A2046884794F872
:1045E000280040073BD5002000900598A1690023D2
:1045F00042181946204601F0BBFDD8B9502080F37F
:104600001188BFF34F8FBFF36F8FFEE714F8280FA9
:1046100020F00100207022E094F8280040F0010012
:1046200084F828000598A06128B181181346204617
:10463000FFF778FF13E0502080F31188BFF34F8F0E
:10464000BFF36F8FFEE794F82800810703D420465C
:1046500000F06AFB03E020F0010084F8280000224B
:1046600004A9286801F0B2FA002889D109B030BD48
:10467000580000202DE9FC410F46054600F004FDDE
:1046800001A800F067F80446019818B101F0C4FCD5
:10469000BDE8FC81254EAFB130690068D0B300277A
:1046A000291B3A46306800F0C1FB01F0B5FC002838
:1046B000EED11F494FF080500860BFF34F8FBFF31A
:1046C0006F8FE5E7A542EBD801F0A6FCF06827461E
:1046D000C068C468201D00F0D3F994F82800410791
:1046E00019D5A0692B4641193A462046FFF71AFF13
:1046F000A8B100200346014600902A46204601F05A
:1047000037FD60B9502080F31188BFF34F8FBFF39E
:104710006F8FFEE707E020F0010084F82800216A8F
:1047200020468847B4E70127BAE700005800002078
:1047300004ED00E00648416B096829B1416BC96886
:10474000C9684968816270474FF0FF31FAE700009D
:104750001C00002070B5054601F074FB064E0446AF
:10476000B068844203D200F009F8012000E0002084
:1047700028602046B46070BD58000020F8B5194D7F
:1047800020E0C068C4680668201D00F079F9216A3D
:104790002046884794F82800400713D5A069304484
:1047A000B04206D924616060211DE86800F0AEF9CE
:1047B00008E000200346014600903246204601F002
:1047C000D7FC38B1E86801680029DAD12969C5E960
:1047D0000310F8BD502080F31188BFF34F8FBFF353
:1047E0006F8FFEE75800002008484068401C4FF0DB
:1047F000500080F3118804D0BFF34F8FBFF36F8F49
:10480000FEE7BFF34F8FBFF36F8FFEE790000020EE
:104810000346002012B1994302D070470B42FCD0EE
:1048200001207047074CE068016841B1C068002171
:10483000D0F80000FFF71EFFFFF79EFEF3E701210F
:104840000020F7E7580000202DE9F041044600F071
:1048500037FA94F9455004F1240609E0606A48B13A
:10486000304601F0A1FB08B100F030FB6D1E6DB2C7
:10487000002DF3DC4FF0FF3684F8456000F040FA7D
:1048800000F01EFA94F9445004F1100709E0206981
:1048900048B1384601F088FB08B100F017FB6D1EE7
:1048A0006DB2002DF3DC84F84460BDE8F04100F007
:1048B00027BA002804D0012803D0072803D00420F9
:1048C0007047022070470620704700002DE9F04134
:1048D0000546002700F0D8FB324E306808B9FFF7D4
:1048E00013FD706905424ED1C5B3083568070ED077
:1048F00005F00700C0F108000544680707D0502004
:1049000080F31188BFF34F8FBFF36F8FFEE72DB396
:104910007068854237D82348183001460C6801E09A
:1049200020460C466168A94202D221680029F7D1CD
:1049300031688C4227D007682168016060680837B9
:10494000411B10290FD96019420708D0502080F36D
:104950001188BFF34F8FBFF36F8FFEE713E0416005
:104960006560FFF7B9FD61687068401A7060B268F1
:10497000904200D2B060706901430020C4E9000198
:10498000F068401CF06001F047FB780707D050202A
:1049900080F31188BFF34F8FBFF36F8FFEE7384668
:1049A000BDE8F0817000002010B5031F4FF0807447
:1049B0001C601B1F21F001011960191F044B0B60C3
:1049C00014390A60091F6FF0020244380A6010BDF2
:1049D000E947000808B5074E074D4FF0FF340023A4
:1049E00000941A460121706800F004FC2868804792
:1049F000F5E7000074010020D0000020074D4FF4BF
:104A000000744FF47A7621462846FCF739FA04A060
:104A1000FFF722FB3046FFF78CFAF4E70014024060
:104A2000626C696E6B0A0000FEF756FFFCE700003F
:104A30000148006800470000D40000200148407988
:104A4000704700009C01002070B5094DFF231A46F5
:104A500005F5807606E000BF10F8014B54402A5D52
:104A60005A40335D491E89B2F6D242EA032070BD36
:104A70007C62000801488088704700008C0100209B
:104A8000D0E9013201699A60D0E901235A604A688D
:104A9000824201D182684A60002202610868401E99
:104AA0000860086870470000044908680A6880695F
:104AB000D26A0968C2F138028A6170471C0000207E
:104AC000034B036003F15C000860802010607047B6
:104AD000EC0B0020044B036003F15C0008604FF412
:104AE0008070106070470000480E002000F034BB5A
:104AF00000F108014FF0FF32C0E90112C16001610D
:104B000000210160704700210161704730B50B68DA
:104B10005A1C02D000F1080202E0026904E02246B9
:104B2000546825689D42FAD953684B6099608A6041
:104B3000516008610168491C016030BD42684A60EB
:104B400093688B6093685960916008610168491CA3
:104B50000160704702482021406800F0FDBA000063
:104B60005402002002484FF48071406800F0F4BA0B
:104B70005402002002488021406800F0EDBA000095
:104B80005402002002484021406800F0E5BA0000CD
:104B90005402002001490160704700005E5200206D
:104BA000034800231A461946006800F0FFBE0000C3
:104BB000540200202DE9F0411B4C0D460100A06875
:104BC0006FF0200203681A6003686FF040021A60F9
:104BD000164F4FF480760DD00068C16841F0200177
:104BE000C16013A0FFF738FA002231463846FCF7BF
:104BF0004FF90DE015A0FFF72FFA01223146384694
:104C0000FCF746F9A0680068C16821F02001C16086
:104C100060684FF001011DB1BDE8F04100F09CBAA1
:104C2000BDE8F04100F06ABA7401002000180240AB
:104C3000205B6D625F645D3A2052533438355F52B9
:104C4000585F4D4F44450D0A00000000205B6D6227
:104C50005F645D3A2052533438355F54585F4D4F8E
:104C600044450D0A0000000038B5FDF7B1F90021F8
:104C7000054C0B460A46009108B1082100E00321CB
:104C8000206801F075FA38BD8801002038B5FDF7BD
:104C90009FF90A4D002430B101F0DAF800230246F2
:104CA0000621009405E001F0CDF800230246012121
:104CB0000094286801F05CFA38BD000088010020EB
:104CC000502080F31188BFF34F8FBFF36F8F0A49D5
:104CD0004868401C486001280CD10848006810F062
:104CE000FF0F07D0502080F31188BFF34F8FBFF321
:104CF0006F8FFEE7704700009000002004ED00E099
:104D00000849486828B1401E486001D180F31188E5
:104D10007047502080F31188BFF34F8FBFF36F8F20
:104D2000FEE700009000002070B500282AD0164D44
:104D3000A0F1080460686969084207D1502080F337
:104D40001188BFF34F8FBFF36F8FFEE722683AB130
:104D5000502080F31188BFF34F8FBFF36F8FFEE7B2
:104D60008843606000F090F9606869680844686092
:104D70002046FFF7B1FB2869401C2861BDE8704060
:104D800001F04AB970BD0000700000204FF0E02033
:104D900000210161816105494FF47A720968B1FB14
:104DA000F2F1491E4161072101617047180000209E
:104DB00010B5FBF751FA114910280ED300F1E0208D
:104DC00090F8F0030A78904207D2502080F31188BF
:104DD000BFF34F8FBFF36F8FFEE709480068896804
:104DE00000F4E060884207D9502080F31188BFF3B7
:104DF0004F8FBFF36F8FFEE710BD000090000020C3
:104E00000CED00E010B5084B002200BF53F8324013
:104E10001CB1521C082AF9D310BD43F8321003EB21
:104E2000C201486010BD0000D005002070B51546D5
:104E30000E460446FFF744FF94F944100020491C35
:104E400001D184F8440094F94510491C01D184F83B
:104E50004500FFF755FFA06B28B92A46314604F1FB
:104E6000240000F051F82046BDE87040FFF7ECBC8C
:104E700010B5020014D00F48006B38B1502080F3F9
:104E80001188BFF34F8FBFF36F8FFEE700F0FCF880
:104E900000211046FFF712F901F0BEF8002807D1F3
:104EA00005494FF080500860BFF34F8FBFF36F8FFD
:104EB00010BD00001C00002004ED00E002490A6A59
:104EC0000260C968416070471C0000200149012050
:104ED000C86170471C00002010B50C4650B109494C
:104EE00009681831FFF712FE2046BDE81040012185
:104EF000FFF7E4B8502080F31188BFF34F8FBFF362
:104F00006F8FFEE71C00002070B514460D4668B197
:104F10000A4909681831FFF711FE0CB14FF0FF354F
:104F200021462846BDE87040FFF7C8B8502080F3FE
:104F30001188BFF34F8FBFF36F8FFEE71C00002077
:104F400010B51446030011D01048026BB2B10268CC
:104F500041F000419161016818461831FFF7EEFDFC
:104F60002046BDE810400121FFF7A8B8502080F38B
:104F70001188BFF34F8FBFF36F8FFEE7502080F390
:104F80001188BFF34F8FBFF36F8FFEE71C00002027
:104F900070B5194D2A6BF2B141F000410160C4684F
:104FA0000CB3FFF76DFD201DFFF76AFDE06A29696C
:104FB000884200D92861114900EB800001EB800094
:104FC000211DFFF7BBFDE06A2968C96A884201D943
:104FD0000120E86170BD502080F31188BFF34F8F2E
:104FE000BFF36F8FFEE7502080F31188BFF34F8F20
:104FF000BFF36F8FFEE700001C00002010060020AA
:1050000030B587B00024039405AA04A903A804942A
:10501000FFF756FDDDE903010094CDE901100023FF
:1050200015A11748059A00F0D4FE164D0028E86235
:105030001FD001F06DF8012809D0401C19D1502073
:1050400080F31188BFF34F8FBFF36F8FFEE75020BF
:1050500080F31188BFF34F8FBFF36F8F4FF0FF3096
:10506000A86201206861EC6007B0BDE8304000F044
:1050700095BB07B030BD000049444C45000000001E
:10508000554300081C0000200248016B491C0163C5
:10509000704700001C000020164810B5016B11B1CC
:1050A0000121C16110BD0021C1610169124A01E005
:1050B000B9B1491E01EB810352F82330002BF7D020
:1050C00001EB810302EB830202F1080453685B6881
:1050D0005360A34201D15B685360DA6802600161EA
:1050E00010BD502080F31188BFF34F8FBFF36F8F37
:1050F000FEE700001C0000201006002070B50E46E0
:10510000040009D0300E0FD0502080F31188BFF377
:105110004F8FBFF36F8FFEE7502080F31188BFF3EE
:105120004F8FBFF36F8FFEE7FFF7CAFD256825EAB3
:1051300006002060FFF7E4FD284670BD70B5202012
:10514000FFF7C4FB040005D00025201D2560FFF7F4
:10515000CFFC2577204670BD2DE9F0410027884619
:1051600004000AD05FEA18600FD0502080F3118845
:10517000BFF34F8FBFF36F8FFEE7502080F311888E
:10518000BFF34F8FBFF36F8FFEE7261D04F10C05B1
:10519000FFF77AFF2168F06841EA0801216017E013
:1051A000D0E9001601F07F425301236821F07F41CE
:1051B00002D40B4203D10AE031EA030307D1D20142
:1051C00000D50F43216841F00071FFF7E1FE304642
:1051D000A842E5D12068B843206000F01DFF206898
:1051E000BDE8F08113460A460146014800F0F4BFCD
:1051F000ED4A00082DE9F0479A46DDF820909046E8
:105200000D4604004FF0000709D0280E0FD05020A3
:1052100080F31188BFF34F8FBFF36F8FFEE75020ED
:1052200080F31188BFF34F8FBFF36F8FFEE71DB17F
:1052300000F0FAFD40B112E0502080F31188BFF376
:105240004F8FBFF36F8FFEE7B9F1000F07D05020EB
:1052500080F31188BFF34F8FBFF36F8FFEE7FFF727
:1052600013FF2668524629463046FFF7D1FA30B17F
:10527000B8F1000F1AD02068A843206016E0B9F1F9
:10528000000F13D0B8F1000F01D04FF08077BAF1C2
:10529000000F01D047F0806745EA07014A46201D0C
:1052A000FFF74EFE00F0B8FE18B10AE000F0B4FEC1
:1052B0001FE011494FF080500860BFF34F8FBFF3DC
:1052C0006F8FFFF7F1FB0646800110D4FFF7F8FC63
:1052D0002668524629463046FFF79AFA28B1B8F1B7
:1052E000000F02D02068A8432060FFF709FD26F0D8
:1052F0007F463046BDE8F08704ED00E038B504464F
:105300004FF0FF3000900B48002301221F2140681E
:10531000FFF770FF042809D004DC012806D002281A
:1053200005D103E0082801D0102800D120800120F9
:1053300038BD00005402002038B5054601460AA0D9
:10534000FEF78AFE0E4C606860B1FCF741FE28B1A2
:105350006A4629466068FFF745FF03E02946606812
:10536000FFF7FAFE012038BD205B6D625F645D3A95
:1053700020706F73744576656E743D25640D0A0068
:105380005402002001480078704700008C01002082
:1053900010B5FFF7D3FE0649086020B105A0FEF75F
:1053A0005BFE012010BD0DA0FEF756FE002010BDD3
:1053B00070010020205B6D625F645D3A20784D4291
:1053C000506F72744576656E74496E6974205375BA
:1053D0006363657373210D0A00000000205B6D623A
:1053E0005F645D3A20784D42506F72744576656E09
:1053F00074496E6974204661696C6420210D0A004D
:1054000038B5054601460AA0FEF726FE0F4C206877
:1054100060B1FCF7DDFD28B16A4629462068FFF738
:10542000E1FE03E029462068FFF796FE012038BD23
:10543000205B6D625F645D3A20506F737420654538
:1054400076656E743D2564210D0A00007001002010
:1054500010B5014601220248FBF75DFA012010BD9C
:10546000800100202DE9FC412F4C1E460F460128EB
:105470000DD0022802D0032804D008E02B48A060F9
:105480002BA002E03248A06032A0FEF7E5FDA06844
:1054900000254760C56036B14FF48051012E05D01C
:1054A000022E0BD106E08560056107E081604FF4B4
:1054B000C06102E081604FF480610161FCF79CFBF8
:1054C00008B1FBF724FAA0680168CA6822F020023C
:1054D000CA600168CA6822F04002CA60254A0321F6
:1054E000FCF7A5FC104824490C300160C58085807C
:1054F000FFF724FE606008B120A000E02CA0FEF7BA
:10550000ABFD09490C20CDE900010023802235A123
:10551000374800F031FC012802D136A0FEF79CFD8F
:105520000120BDE8FC81000074010020E0030020A0
:10553000205B6D625F645D3A20536C617665207517
:1055400073696E67207561727432210D0A00000064
:1055500054040020205B6D625F645D3A20536C61EF
:105560007665207573696E67207561727433210DDD
:105570000A000000E922000854510020205B6D62FF
:105580005F645D3A2043726561746520536C617697
:1055900065206576656E745F73657269616C204520
:1055A00076656E742073756363657373210D0A00ED
:1055B000205B6D625F645D3A2043726561746520B3
:1055C000536C617665206576656E745F736572698C
:1055D000616C204576656E7420204661696C64219B
:1055E0000D0A0000736C617665207472616E730041
:1055F000D5490008205B6D625F645D3A2078546194
:10560000736B43726561746520736C617665207499
:1056100072616E7320737563636573730D0A0000A6
:10562000044989680A685060086801684906FCD521
:105630000120704774010020322148434FF47A71F1
:10564000B0FBF1F108B5074800900223002206A044
:10565000491C00F043FD07490028086000D00120E4
:1056600008BD0000314A0008536C617665207469FA
:105670006D6572008801002038B500246846FFF788
:10568000E7FE1349487830B1124A012807D00228B2
:1056900010D0032801D1FFF7F9FA204638BD0020C9
:1056A00088809DF8003088880244401C88801370F0
:1056B00002200BE08888FF2807D89DF800308888F2
:1056C0000244401C88801370E5E703204870E2E73D
:1056D000A0000020C44E002070B5084D002468785A
:1056E00010B1022804D100E00120FFF789FE044632
:1056F000FFF7BAFA01206870204670BDA0000020B4
:1057000070B5124C0025207810B101281CD104E09E
:1057100000210120FFF74EFA16E0608850B1A06822
:105720000078FFF77DFFA068401CA0606088401EE5
:10573000608009E00820FFF763FE05460021012094
:10574000FFF738FA00202070284670BDA000002026
:1057500010B5CB085C4201EBC40401219140C25C4E
:105760001844407842EA0020E040491E0840C0B298
:1057700010BD70B5CC08654201EBC505AB400121F9
:105780009140491EA9400519025D6E7842EA062241
:105790008A431A430255100A687070BD1CB5374819
:1057A0000168374A914207D1502080F31188BFF336
:1057B0004F8FBFF36F8FFEE700683149491E884263
:1057C00007D1502080F31188BFF34F8FBFF36F8F45
:1057D000FEE72C4908780190FF20087008788DF8C2
:1057E00000009DF800009DF8002000F0F0009042BD
:1057F00007D0502080F31188BFF34F8FBFF36F8F16
:10580000FEE79DF80000204C00F0500020700720BB
:10581000A06005E09DF8002052008DF80020401E99
:105820009DF800201206F5D4A060032807D0502070
:1058300080F31188BFF34F8FBFF36F8FFEE74FF4F4
:105840004070A060019808700C482030016841F455
:1058500070010160016841F070410160FFF796FA44
:1058600000206060FAF7C0FC0848016841F0404140
:105870000160FAF7A5FC00201CBD000000ED00E06F
:1058800071C20F4100E400E09000002034EF00E01E
:1058900010B5502080F31188BFF34F8FBFF36F8F87
:1058A00000F0DEFA18B104494FF080500860002083
:1058B00080F3118810BD000004ED00E038B5049DB0
:1058C00018B153B1CAB181B120E0502080F31188E2
:1058D000BFF34F8FBFF36F8FFEE7502080F3118827
:1058E000BFF34F8FBFF36F8FFEE7502080F3118817
:1058F000BFF34F8FBFF36F8FFEE739B1502080F3B6
:105900001188BFF34F8FBFF36F8FFEE750241C4603
:10591000012384F846302B460094FEF74BFD2046C9
:1059200038BD000070B50D46040025D0FFF7C8F95A
:10593000D4E90F20216802FB0011A1600021A163BE
:10594000216861600A46D4E90F01401E00FB012175
:10595000E16021464FF0FF3001F8440F487004F138
:1059600010008DB1FFF7C4F804F12400FFF7C0F870
:10597000FFF7C6F9012070BD502080F31188BFF3F6
:105980004F8FBFF36F8FFEE721690029F0D000F041
:105990000BFB0028ECD004494FF080500860BFF3A7
:1059A0004F8FBFF36F8FE3E704ED00E02DE9FF4772
:1059B00082B01D468A464FF00008040003D0BAF1B9
:1059C000000F08D011E0502080F31188BFF34F8FF3
:1059D000BFF36F8FFEE7206C38B1502080F3118841
:1059E000BFF34F8FBFF36F8FFEE7022D0AD1E06B3D
:1059F000012807D0502080F31188BFF34F8FBFF3E9
:105A00006F8FFEE700F010FA3F4F4FF000094FF0A4
:105A1000805648B9049838B1502080F31188BFF3FC
:105A20004F8FBFF36F8FFEE7FFF74AF9A06BE16B73
:105A3000884207D3022D05D00498D0B1B8F1000FE9
:105A40001AD01EE02A4651462046FEF70CFC616A39
:105A500019B104F1240000F0A7FA20B13E60BFF3B1
:105A60004F8FBFF36F8FFFF74BF9012006B0BDE8F2
:105A7000F087FFF745F922E06846FFF71FFA4FF07D
:105A80000108FFF73DF9FFF7FFFAFFF719F994F95D
:105A90004400401C01D184F8449094F94500401C16
:105AA00001D184F84590FFF72BF904A9684600F06E
:105AB00029F930B12046FEF7C7FE00F0ADFA00200C
:105AC000D4E7FFF7FDF8A06BE16B884213D1FFF735
:105AD00017F904F110000499FFF7FEF92046FEF7CC
